S00E0000534D313638342E73726563A3
S113000099C00000B6C00000B4C00000B2C0000037
S1130010B0C00000AEC00000ACC00000AAC0000028
S1130020A8C00000A6C00000A4C00000A2C0000038
S1130030A0C000009EC000009CC000009AC0000048
S113004098C0000096C0000094C0000092C0000058
S113005090C000008EC000008CC000002FC10000C2
S113006088C0000086C0000084C0000082C0000078
S113007080C000007EC000007CC000007AC0000088
S113008078C0000076C0000074C0000072C0000098
S113009070C000006EC000006CC000006AC00000A8
S11300A068C0000066C0000064C0000062C00000B8
S11300B060C000005EC000005CC000005AC00000C8
S11300C058C0000056C0000054C0000052C00000D8
S11300D050C000004EC000004CC000004AC00000E8
S11300E048C0000046C0000044C0000042C00000F8
S11300F040C000003EC000003CC000003AC0000008
S113010038C0000036C0000034C0000032C0000017
S113011030C000002EC000002CC000002AC0000027
S113012028C0000026C0000024C0000022C0000037
S113013020C0000011241FBECFEFD1E8DEBFCDBF29
S113014000E00CBF12E0A0E0B2E0ECE4F3E000E079
S11301500BBF02C007900D92A030B107D9F722E07F
S1130160A0E0B2E001C01D92AE30B207E1F753D077
S1130170EBC046CF6B9898986E985698739AA09A4D
S1130180769A5E9A08958CB183FB992790F981E061
S1130190892780930402813029F48091050281111A
S11301A001C06DD0809104028093050208958CB142
S11301B086FB992790F981E0892780930202813098
S11301C029F480910302811101C053D0809102026D
S11301D080930302089589B186FB992790F981E001
S11301E0892780930002813029F4809101028111D2
S11301F001C042D080910002809301020895249AA4
S11302002C9A089595B180E1892785B9089508D07D
S1130210B1DFF5CF0895FBDFB6DFC9DFDCDFFCCF4C
S1130220259A6A9A2D9A729A269A6B9A2E9A739A9A
S1130230559A6D9A5D9A759A08955D9A25E12A9565
S1130240F1F700005D9885E18A95F1F7000080914F
S1130250060290910702019690930702809306028A
S11302608130994154F35D9810920702109206026E
S11302700895759AE2CF08957598DFCF0895C2DF87
S11302802D9A20E12A95F1F72D9880E18A95F1F7CE
S1130290809108029091090201969093090280933B
S11302A008028130994164F32D981092090210924A
S11302B008029EB184E089278EB908951F920F9297
S11302C00FB60F9211242F938F939F9380910C025A
S11302D090910D02019690930D0280930C0289383F
S11302E09341B4F095B180E1892785B910920D024C
S11302F010920C022D9B02C02D9801C02D9A809162
S11303000A0290910B02019690930B0280930A02C9
S113031080910A0290910B02853691056CF095B19B
S113032080E1892785B910920B0210920A02729B10
S113033002C0729801C0729A9F918F912F910F9071
S10F03400FBE0F901F901895F894FFCF8B
S9030000FC
